:03000000020137C3
:0C013700787FE4F6D8FD75810A02009B79
:100003007FBFDFEFF7FBFDFE00003E4141413E00B5
:1000130000000000217F010000002745454539000D
:10002300000022494949360000000C14247F0400D3
:100033000000725151514E0000003E4949492600CB
:1000430000004040404F70000000364949493600E7
:100053000000324949493E0000007F484830000013
:1000630000007F484C73000000007F4949490000AD
:1000730000003E414162000000007F08087F00004D
:10008300000000FFFF000000007F1008047F000055
:080093007C4848FF48487C004E
:10011700E4FDFCC3ED9FEC9E5015E4FBFA0BBB001E
:0F012700010AEB64794A70F50DBD00010C80E40C
:0101360022A6
:1000F500C2B6C2B5E4FEEFC4131313540124FF9234
:10010500B4EF25E0FFD2B6C2B60EBE08E9D2B5C23D
:01011500B534
:0101160022C6
:10009B00E4F509F50AE4F9E4FF1200F5E990000331
:1000AB0093F580E50875F008A4240BF582E4340081
:1000BB00F583E58229F582E43583F583E493FF121A
:1000CB0000F57F027E0012011709B908CA050AE57F
:1000DB000A70020509C39432E509940040B705087C
:0A00EB00E508B412ABE4F50880A6A6
:00000001FF
