:100086000E11131519110E1F040404140C041F106D
:10009600080412110E0E11020402110E0202021FB2
:1000A6000A06021F01011F10101F1F11111F101039
:1000B6001F0404040402111F0E111B0E11110E1F42
:0600C60001011F11111FD2
:10000300E4F50CF50DE4F508F509E4F50AF50B90B4
:10001300008675F007E50D1200F8E50C75F007A4EE
:100023002583F583E582250BF582E583350AF58380
:10003300E493F580AF0BA8077401088002C333D89B
:10004300FCF5B07F017E001200CCE4F5B0050BE5B2
:100053000B7002050AC39407E50A940040B1050931
:10006300E50970020508C3948FE5089400409B05D9
:100073000DE50D7002050CC3940AE50C9400408550
:0300830002000375
:1000CC00E4FDFCC3ED9FEC9E5015E4FBFA0BBB006A
:0F00DC00010AEB647B4A70F50DBD00010C80E456
:0100EB0022F2
:030000000200EC0F
:0C00EC00787FE4F6D8FD75810D0200035A
:0C00F800A42582F582E5F03583F5832213
:00000001FF
