:0C0087008F993099FDC299C2B2D2B2220A
:10000300C29FC29EE4F508F509E4FF1200877FF45E
:100013007E011200677FFF1200877FF47E011200CA
:10002300670509E50970020508C39403E508940010
:1000330040D7E4F508F509C3E5099403E5089400FE
:1000430050C27FAA1200877FF47E011200677F559A
:100053001200877FF47E011200670509E50970D756
:04006300050880D339
:10006700E4FDFCC3ED9FEC9E5015E4FBFA0BBB00CF
:0F007700010AEB647B4A70F50DBD00010C80E4BB
:010086002257
:0300000002009368
:0C009300787FE4F6D8FD758109020003B7
:00000001FF
