:100282004144435F76616C75653A20004C65643A7F
:0A02920020004F4646004F4E2000AA
:10000300C2A512013D7FA412029C8E088F097BFFBB
:100013007A0279827D017F01120247AE08AF097C23
:10002300037DE81200E8EF2430FF1202F6AE08AFBA
:10003300097C037DE81200E87E007F64CFCDCFCE3C
:10004300CCCE1200E8EF2430FF1202F6AE08AF095F
:100053007C007D641200E87E007F0ACFCDCFCECC3A
:10006300CE1200E8EF2430FF1202F6AE08AF097C8F
:10007300007D0A1200E8ED2430FF1202F67BFF7ABE
:1000830002798E7D017F02120247C3E5099464E57C
:10009300089400500AD2A07BFF7A0279948008C2A8
:1000A300A07BFF7A0279987D067F021202477FF4D4
:0800B3007E011201E7020008C2
:1001E700E4FDFCC3ED9FEC9E5015E4FBFA0BBB004E
:0F01F700010AEB64714A70F50DBD00010C80E444
:0102060022D5
:1002E400EF339287EFA2E69286A2E59285A2E4928A
:0202F400842262
:0702B5001202E4D2A7C2A768
:1002BC00EFA2E39287A2E29286A2E1928513928446
:0102CC00220F
:07031D00AE071FEE70FA228B
:10013D00C2A6C2A77F147E001201E77F031202BC84
:10014D00D2A7C2A77F057E001201E77F031202BC72
:10015D00D2A7C2A77F6412031D7F031202BCD2A7D0
:10016D00C2A77F017E001201E77F021202BCD2A757
:10017D00C2A71F7E001201E77F281202077F0C1213
:0C018D0002077F011202077F0602020732
:10020700AE07C2A61202B5D2A7C2A7EF24FE6003AB
:100217000470077F027E000201E77F2512031D227B
:1002F600AE07D2A61202B5D2A7C2A77F2902031D56
:0202CD008B1391
:1002CF00BF01047F8080027FC0ED142FFF12020751
:0502DF00AF130202F65E
:060227008B0D8A0E890F09
:10022D00E4FDAB0DAA0EA90F8D827583001200BBE4
:09023D00FF60061202F60D80E9D3
:010246002295
:060247008B0A8A0B890CF2
:10024D00BF01047F8080027FC0ED142FFF120207D3
:09025D00AB0AAA0BA90C0202274E
:060199008B108A1189128F
:10019F00EF75F008A42440FF120207E4FDAB10AA8C
:1001AF0011A9128D827583001200BBFF1202F60D8A
:0301BF00BD08EA8E
:0101C200221A
:0B031200C2B6D2B5D2B4D2B6C2B5223A
:10026600C2B6E4FEEFC4131313540124FF92B4EF95
:0B02760025E0FFC2B6D2B60EBE08E9BC
:01028100225A
:1001C300E4FFFEC2B6FDFCEF25E0FFEE33FED2B640
:1001D300C2B6A2B7E43342070DBD00010CED640CB7
:0301E3004C70E479
:0101E60022F6
:10029C00C2B6C2B51202667F06DFFED2B60000C23D
:0802AC00B600001201C3D2B537
:0102B4002227
:03000000020306F2
:0C030600787FE4F6D8FD75811302000337
:1000BB00BB010CE58229F582E5833AF583E02250FA
:1000CB0006E92582F8E622BBFE06E92582F8E22244
:0D00DB00E58229F582E5833AF583E493225E
:1000E800BC000BBE0029EF8DF084FFADF022E4CCFC
:1000F800F875F008EF2FFFEE33FEEC33FCEE9DECC5
:10010800984005FCEE9DFE0FD5F0E9E4CEFD22ED0A
:10011800F8F5F0EE8420D21CFEADF075F008EF2F54
:10012800FFED33FD4007985006D5F0F222C398FD45
:050138000FD5F0EA22E2
:00000001FF
