:10003000E4F50B12009B2090FD7F147E0012005B04
:10004000050BE50B30E0057F011200BBE50B20E05E
:0B00500005E4FF1200BB2090DD80FBE8
:10005B00E4FDFCC3ED9FEC9E5015E4FBFA0BBB00DB
:0F006B00010AEB64714A70F50DBD00010C80E4D1
:01007A002263
:10009B00C29FD29E53890F438920758DFDD28ED27C
:0400AB0099D29C2228
:0800BB003099FDC2998F9922D2
:06007B008B088A09890AC6
:10008100E4FEAB08AA09A90A8E8275830012000357
:09009100FF60061200BB0E80E9BD
:01009A002243
:0600C300A298E433FF22C5
:0500C900C298AF99226E
:030000000200AF4C
:0C00AF00787FE4F6D8FD75810B0200306C
:10000300BB010CE58229F582E5833AF583E02250B2
:1000130006E92582F8E622BBFE06E92582F8E222FC
:0D002300E58229F582E5833AF583E4932216
:00000001FF
