:0A017200C0F9A4B0999282F88090C1
:100003005389F04389011200C9EF70FA7FCC1200C3
:100013007F7F4412007F7F207E0312010D1200C9EF
:10002300EF70FA7FCC12007F7FBE12007F1200A513
:100033007508008F091200A5EFFEEE4208E508C41B
:10004300F854F0C8E509C4540F48FDE509540F7589
:10005300F00AA4FFE5F0C4F854F0C8EFC4540F4805
:10006300FFED75F00A8490017293F580ED75F00A47
:0C00730084E5F093F5A0EF93F5B0808ACF
:10010D00E4FDFCC3ED9FEC9E5015E4FBFA0BBB0028
:0F011D00010AEB647B4A70F50DBD00010C80E414
:01012C0022B0
:1000C900C2907FE07E0112012DD2907F467E001200
:1000D900012DA290E433F50A7F9A7E0112012DAF1A
:0100E9000A0C
:0100EA0022F3
:10014200C2907F067E0012012DD2907F407E000277
:02015200012D7D
:10015400C2907F3C7E0012012DD2907F0A7E000265
:02016400012D6B
:0A017C00BF010302014212015422E8
:02007F008F0AE6
:10008100750B00750C08E50C150CAE0B7002150B09
:100091004E6010E50A5401FF12017CE50AC313F515
:0300A1000A80E3EF
:0100A4002239
:1000EB00C2907F067E0012012DD2907F097E0012F6
:1000FB00012DA290E433F50C7F377E0012012DAF5A
:01010B000CE7
:01010C0022D0
:1000A500750A08E4F50BAF0A150AEF6014E50BC3F2
:1000B50013F50B1200EBEFC43333335480420B803E
:0300C500E5AF0B99
:0100C8002215
:10012D00C3E49FFFE49EF58CEFF58AD28C308DFDF4
:04013D00C28CC28D21
:01014100229B
:0300000002016694
:0C016600787FE4F6D8FD75810C020003E0
:00000001FF
