:0400B2007FF47E0158
:1000B600E4FDFCC3ED9FEC9E5015E4FBFA0BBB0080
:0F00C600010AEB647B4A70F50DBD00010C80E46C
:0100D5002208
:10000300900000E4F5801200B27580FF1200B6A3E1
:10001300E5826405458370EBE4F583F5827580F032
:100023001200B275800F1200B6A3E5826405458302
:1000330070EBE4F583F5827580AA1200B2758055E2
:100043001200B6A3E5826405458370EB7580011247
:1000530000B27580021200B67580041200B6758076
:10006300081200B67580101200B67580201200B613
:100073007580401200B67580801200B675808012BC
:1000830000B67580401200B67580201200B67580E8
:10009300101200B67580081200B67580041200B6FF
:0F00A3007580021200B67580011200B6020003CC
:030000000200D625
:0C00D600787FE4F6D8FD75810702000376
:00000001FF
