:040003000208000AE5
:10009A005389F0438901D2AFD2A9758C3C758AB0D5
:1000AA00D28CE4F5907F64FE1200FEE4F50AF50BAB
:1000BA00E59025E0F5904390017F647E001200FEF2
:1000CA00050BE50B7002050AC39408E50A94004083
:0300DA00DF80CFF5
:03000B000200DD13
:1000DD00C0E0758C3C758AB0E509150970021508EC
:1000ED00E50945087008F50875090A63A0FFD0E019
:0100FD0032D0
:1000FE00E4FDFCC3ED9FEC9E5015E4FBFA0BBB0038
:0F010E00010AEB647B4A70F50DBD00010C80E423
:01011D0022BF
:0300000002000EED
:0C000E00787FE4F6D8FD75810B020055E8
:10001A0002009AE493A3F8E493A34003F68001F262
:10002A0008DFF48029E493A3F85407240CC8C333E7
:10003A00C4540F4420C8834004F456800146F6DFB6
:10004A00E4800B0102040810204080900003E47E43
:10005A00019360BCA3FF543F30E509541FFEE493AB
:10006A00A360010ECF54C025E060A840B8E493A372
:10007A00FAE493A3F8E493A3C8C582C8CAC583CA9D
:10008A00F0A3C8C582C8CAC583CADFE9DEE780BE55
:0100070000F8
:00000001FF
