:0E00E400313233343536004C494E452032005F
:1000BB00C2A08FB0C2A1D2A1EFD3940250047F0291
:0A00CB0080027F017E0012007F22F8
:0F00D500D2A08FB0C2A1D2A17F017E0002007F16
:06005C008B088A09890AE5
:10006200E4F50BAB08AA09A90A850B827583001275
:0C0072000003FF60071200D5050B80E7BB
:01007E00225F
:100030007F301200BB7F057E0012007F7F301200F0
:10004000BB7F017E0012007F7F301200BB7F381221
:0C00500000BB7F011200BB7F0C0200BB54
:10009F001200307BFF7A0079E412005C7FC01200FF
:0C00AF00BB7BFF7A0079EB12005C80FE46
:10007F00E4FDFCC3ED9FEC9E5015E4FBFA0BBB00B7
:0F008F00010AEB647B4A70F50DBD00010C80E4A3
:01009E00223F
:030000000200F209
:0C00F200787FE4F6D8FD75810B02009FBA
:10000300BB010CE58229F582E5833AF583E02250B2
:1000130006E92582F8E622BBFE06E92582F8E222FC
:0D002300E58229F582E5833AF583E4932216
:00000001FF
