:0A0089001200937FAA12002380FEEC
:100023008F08C2A37F0612003ED2A3C2A3AF081259
:0B003300003ED2A312006CEF70FA2216
:10006C00C2A37F0512003E120057D2A3EF5401FF2A
:01007C002261
:10000300E4FDFCC3ED9FEC9E5015E4FBFA0BBB0033
:0F001300010AEB647B4A70F50DBD00010C80E41F
:0100220022BB
:07009300D2A3C2A0D2A222F9
:10003E00E4FEEF30E704D2A18002C2A1D2A0C2A09A
:08004E00EF25E0FF0EBE08EAF9
:010056002287
:10005700E4FEEF25E0FFD2A030A203430701C2A0D0
:040067000EBE08EED3
:01006B002272
:0300000002007D7E
:0C007D00787FE4F6D8FD75810802008948
:00000001FF
