:1001DF003F065B4F666D7D077F6F777C395E797168
:0101EF00000F
:10000300E51364324512700DF512F5137F94120156
:10001300C68E108F110513E513700205129001DFD0
:10002300E493F50FF50EF50DF50CAE10AF117C272B
:100033007D101201317E037FE8CFCDCFCECCCE121F
:10004300013174DF2FF58274013EF583E493F50BE0
:10005300AE10AF117C037DE81201317E007F64CFC7
:10006300CDCFCECCCE12013174DF2FF58274013E99
:10007300F583E493F50AAE10AF117C007D641201A1
:10008300317E007F0ACFCDCFCECCCE12013174DFCB
:100093002FF58274013EF583E493F509AE10AF1199
:1000A3007C007D0A12013174DF2DF58274013CF569
:0B00B30083E493F5081200BE02000376
:1000BE00E4FFEFB40800504D9000CDF828287302ED
:1000CE0000E50200E90200F10200F50200FD020166
:1000DE000102010902010DC2A28002D2A2C2A3C274
:1000EE00A48022C2A28002D2A2D2A3C2A48016C22F
:1000FE00A28002D2A2C2A3D2A4800AC2A28002D23D
:10010E00A2D2A3D2A474082FF8E6F5807D327C002B
:10011E00ED1DAA0470011C4A70F6F5800FEF6408FD
:02012E007090CF
:0101300022AC
:0B01FC00C2B6D2B5D2B4D2B6C2B52252
:1001AA00C2B6E4FEEFC4131313540124FF92B4EF52
:0B01BA0025E0FFC2B6D2B60EBE08E979
:0101C5002217
:10018600E4FFFEC2B6FDFCEF25E0FFEE33FED2B67D
:10019600C2B6A2B7E43342070DBD00010CED640CF4
:0301A6004C70E4B6
:0101A9002233
:1001C600C2B6C2B51201AA7F06DFFED2B60000C2D1
:0801D600B60000120186D2B54B
:0101DE0022FE
:030000000201F00A
:0C01F000787FE4F6D8FD7581130200034F
:10013100BC000BBE0029EF8DF084FFADF022E4CCB2
:10014100F875F008EF2FFFEE33FEEC33FCEE9DEC7B
:10015100984005FCEE9DFE0FD5F0E9E4CEFD22EDC1
:10016100F8F5F0EE8420D21CFEADF075F008EF2F0B
:10017100FFED33FD4007985006D5F0F222C398FDFC
:050181000FD5F0EA2299
:00000001FF
