:10007000120089C2901200B1BF01FA1200B7BF018D
:0900800004D29080F0C29080ECE3
:10003000E4FDFCC3ED9FEC9E5015E4FBFA0BBB0006
:0F004000010AEB64714A70F50DBD00010C80E4FC
:01004F00228E
:10008900C29FD29E53890F438920758DFDD28ED28E
:0400990099D29C223A
:0800A9003099FDC2998F9922E4
:060050008B088A09890AF1
:10005600E4FEAB08AA09A90A8E8275830012000382
:09006600FF60061200A90E80E9FA
:01006F00226E
:0600B100A298E433FF22D7
:0500B700C298AF992280
:0300000002009D5E
:0C009D00787FE4F6D8FD75810A0200703F
:10000300BB010CE58229F582E5833AF583E02250B2
:1000130006E92582F8E622BBFE06E92582F8E222FC
:0D002300E58229F582E5833AF583E4932216
:00000001FF
