:100434004144432076616C75653A2000566F6C74B4
:080444006167653A20002E00FB
:0C049D0075A0FF30B003D5A0FAAFA0227C
:1002580012032F12049D7508008F097BFF7A047919
:10026800347D017F01120415AE08AF097C007D645E
:100278001201F5EF2430FF12048DAE08AF097C009F
:100288007D641201F57E007F0ACFCDCFCECCCE1291
:1002980001F5EF2430FF12048DAE08AF097C007D14
:1002A8000A1201F5ED2430FF12048DAC08AD09E403
:1002B80012010EE4FBFA79FA783F120003120147A3
:1002C8008E0A8F0B7BFF7A0479407D017F0212042E
:1002D80015AE0AAF0B7C007D641201F5EF2430FFE8
:1002E80012048D7BFF7A04794A1203F5AE0AAF0B2C
:1002F8007C007D641201F57E007F0ACFCDCFCECC85
:10030800CE1201F5EF2430FF12048DAE0AAF0B7C3C
:10031800007D0A1201F5ED2430FF12048D7FF47E72
:07032800011203B502025BA4
:1003B500E4FDFCC3ED9FEC9E5015E4FBFA0BBB007E
:0F03C500010AEB647B4A70F50DBD00010C80E46A
:0103D4002206
:10047B00EF339297EFA2E69296A2E59295A2E492C1
:02048B009422B9
:07044C0012047BD292C29260
:10045300EFA2E39297A2E29296A2E192951392946D
:010463002276
:0704B500AE071FEE70FA22F2
:10032F00C290C2927F147E001203B57F0312045352
:10033F00D292C2927F057E001203B57F031204533F
:10034F00D292C2927F641204B57F03120453D292E9
:10035F00C2927F017E001203B57F02120453D29224
:10036F00C2921F7E001203B57F281203D57F0C1295
:0C037F0003D57F011203D57F060203D5D1
:1003D500AE07C29012044CD292C292EF24FE600383
:1003E5000470077F027E000203B57F251204B52243
:10048D00AE07D29012044CD292C2927F290204B5CB
:020464008B15F6
:10046600BF01047F8080027FC0ED142FFF1203D5E9
:05047600AF1502048D2A
:0603F5008B0F8A10891134
:1003FB00E4FDAB0FAA10A9118D827583001201C801
:09040B00FF600612048D0D80E96A
:0104140022C5
:060415008B0C8A0D890E1C
:10041B00BF01047F8080027FC0ED142FFF1203D534
:09042B00AB0CAA0DA90E0203F5A9
:06038B008B128A13891495
:10039100EF75F008A42440FF1203D5E4FDAB12AAC7
:1003A10013A9148D827583001201C8FF12048D0DEB
:0303B100BD08EA9A
:0103B4002226
:10000300EC4D6011E8497017ED33EC3304600DE4F7
:10001300FCFFFEFD22E933E8330470F80201B3125A
:10002300017E58046009E4CC24815006285009025B
:1000330001BD2840030201BAC0E0EB4A7044B98015
:1000430006D0E0FB0201A9EF4E701CBD8008EBFF58
:10005300EAFEE9FD80EBE98DF0A4FEE5F00200EC99
:10006300E9CDF9EAFEEBFFEF89F0A4FCE5F0CE89D8
:10007300F0A42EFFE435F0CD89F0A42DFEE435F095
:100083008067EF4E7005BD80D780C3EF8BF0A4ACC3
:10009300F0EE8BF0A42CFCE435F0F8EF8AF0A42CFE
:1000A300E5F038FCE433CB8DF0A42CFCE5F03BF811
:1000B300EE8AF0A42CFCE5F038F8E433CF89F0A401
:1000C3002CFCE5F038CF3400CE89F0A42FFFE5F007
:1000D3003EFEE433C98DF0A42EFEE5F039CD8AF05F
:1000E300A42FFFE5F03EFEE43DFD33D0E0FB5007D7
:1000F3000BBB000F0201BDEC2CFCEF33FFEE33FE14
:06010300ED33FD02019541
:1001090075F020800E75F010800575F0087D007E71
:10011900007F003392D530D50312024AEC334010E8
:10012900EF33FFEE33FEED33FDEC33FCD5F0ED227A
:0E013900E5F0247EA2D513CC92E7CDCEFF22B6
:10014700EDD2E7CD33EC3392D524814006E4FFFEB0
:10015700FDFC22FCE4CFCECDCC24E0501174FF800F
:10016700EDC3CC13CCCD13CDCE13CECF13CF0470AC
:07017700F030D5DE02024A60
:10017E00E9D2E7C933E833F892D5EDD2E7CD33ECC7
:07018E0033FC5002B2D52240
:10019500EC30E7100FBF000C0EBE00080DBD0004CB
:1001A5000BEB6014A2D5EB13FCED92E7FD2274FF77
:1001B500FCFDFEFF22E480F8A2D574FF13FC7D80D0
:0301C500E480EFE4
:030000000204A94E
:0C04A900787FE4F6D8FD7581150202583A
:1001C800BB010CE58229F582E5833AF583E02250EC
:1001D80006E92582F8E622BBFE06E92582F8E22236
:0D01E800E58229F582E5833AF583E4932250
:1001F500BC000BBE0029EF8DF084FFADF022E4CCEE
:10020500F875F008EF2FFFEE33FEEC33FCEE9DECB6
:10021500984005FCEE9DFE0FD5F0E9E4CEFD22EDFC
:10022500F8F5F0EE8420D21CFEADF075F008EF2F46
:10023500FFED33FD4007985006D5F0F222C398FD37
:050245000FD5F0EA22D4
:0E024A00C3E49FFFE49EFEE49DFDE49CFC22C5
:00000001FF
