:0A00EF00C0792430191202780010C5
:10000300C2A1C2A0E4F508F509AE08AF097C007DE2
:100013000A12006E74EF2FF58274003EF583E493A9
:10002300F580D2A07F0A7E001200C3C2A0AE08AF43
:10003300097C007D0A12006E74EF2DF58274003C7A
:10004300F583E493F580D2A17F0A7E001200C3C238
:10005300A17FF47E011200C30509E50970020508BA
:0B006300C39464E508940040A080995D
:1000C300E4FDFCC3ED9FEC9E5015E4FBFA0BBB0073
:0F00D300010AEB647B4A70F50DBD00010C80E45F
:0100E20022FB
:030000000200E318
:0C00E300787FE4F6D8FD75810902000367
:10006E00BC000BBE0029EF8DF084FFADF022E4CC76
:10007E00F875F008EF2FFFEE33FEEC33FCEE9DEC3F
:10008E00984005FCEE9DFE0FD5F0E9E4CEFD22ED85
:10009E00F8F5F0EE8420D21CFEADF075F008EF2FCF
:1000AE00FFED33FD4007985006D5F0F222C398FDC0
:0500BE000FD5F0EA225D
:00000001FF
