:0B0445004E6869657420646F3A200067
:10025800C2811202D31204198F08AC08E4120113E8
:100268007BFC7AFA79FA783F1200031201478E096B
:100278008F0A7BFF7A0479457D017F011203B9AEAD
:1002880009AF0A7C007D641201F5EF2430FF1204E7
:1002980029AE09AF0A7C007D641201F57E007F0A51
:1002A800CFCDCFCECCCE1201F5EF2430FF120429EA
:1002B800AE09AF0A7C007D0A1201F5ED2430FF1269
:0B02C80004297FF47E01120359808A94
:0F041900C2B0C2B2D2B220B3FDC2B1AFA0D2B155
:0104280022B1
:10035900E4FDFCC3ED9FEC9E5015E4FBFA0BBB00DA
:0F036900010AEB647B4A70F50DBD00010C80E4C6
:010378002262
:10040700EF339287EFA2E69286A2E59285A2E49265
:0204170084223D
:0703D800120407D282C28269
:1003DF00EFA2E39287A2E29286A2E1928513928422
:0103EF0022EB
:07045000AE071FEE70FA2257
:1002D300C280C2827F147E001203597F031203DFA0
:1002E300D282C2827F057E001203597F031203DF8D
:1002F300D282C2827F641204507F031203DFD28250
:10030300C2827F017E001203597F021203DFD28271
:10031300C2821F7E001203597F281203797F0C12B9
:0C03230003797F011203797F0602037941
:10037900AE07C2801203D8D282C282EF24FE600384
:100389000470077F027E000203597F251204502260
:10042900AE07D2801203D8D282C2827F2902045039
:0203F0008B146C
:1003F200BF01047F8080027FC0ED142FFF120379BA
:05040200AF1402042903
:060399008B0E8A0F891093
:10039F00E4FDAB0EAA0FA9108D827583001201C860
:0903AF00FF60061204290D80E92B
:0103B8002222
:0603B9008B0B8A0C890D7C
:1003BF00BF01047F8080027FC0ED142FFF120379ED
:0903CF00AB0BAA0CA90D02039965
:06032F008B118A128913F4
:10033500EF75F008A42440FF120379E4FDAB11AA80
:1003450012A9138D827583001201C8FF1204290DAD
:03035500BD08EAF6
:010358002282
:10000300EC4D6011E8497017ED33EC3304600DE4F7
:10001300FCFFFEFD22E933E8330470F80201B3125A
:10002300017E58046009E4CC24815006285009025B
:1000330001BD2840030201BAC0E0EB4A7044B98015
:1000430006D0E0FB0201A9EF4E701CBD8008EBFF58
:10005300EAFEE9FD80EBE98DF0A4FEE5F00200EC99
:10006300E9CDF9EAFEEBFFEF89F0A4FCE5F0CE89D8
:10007300F0A42EFFE435F0CD89F0A42DFEE435F095
:100083008067EF4E7005BD80D780C3EF8BF0A4ACC3
:10009300F0EE8BF0A42CFCE435F0F8EF8AF0A42CFE
:1000A300E5F038FCE433CB8DF0A42CFCE5F03BF811
:1000B300EE8AF0A42CFCE5F038F8E433CF89F0A401
:1000C3002CFCE5F038CF3400CE89F0A42FFFE5F007
:1000D3003EFEE433C98DF0A42EFEE5F039CD8AF05F
:1000E300A42FFFE5F03EFEE43DFD33D0E0FB5007D7
:1000F3000BBB000F0201BDEC2CFCEF33FFEE33FE14
:06010300ED33FD02019541
:1001090075F020800E75F010800575F0087D007E71
:10011900007F003392D530D50312024AEC334010E8
:10012900EF33FFEE33FEED33FDEC33FCD5F0ED227A
:0E013900E5F0247EA2D513CC92E7CDCEFF22B6
:10014700EDD2E7CD33EC3392D524814006E4FFFEB0
:10015700FDFC22FCE4CFCECDCC24E0501174FF800F
:10016700EDC3CC13CCCD13CDCE13CECF13CF0470AC
:07017700F030D5DE02024A60
:10017E00E9D2E7C933E833F892D5EDD2E7CD33ECC7
:07018E0033FC5002B2D52240
:10019500EC30E7100FBF000C0EBE00080DBD0004CB
:1001A5000BEB6014A2D5EB13FCED92E7FD2274FF77
:1001B500FCFDFEFF22E480F8A2D574FF13FC7D80D0
:0301C500E480EFE4
:03000000020439BE
:0C043900787FE4F6D8FD758114020258AB
:1001C800BB010CE58229F582E5833AF583E02250EC
:1001D80006E92582F8E622BBFE06E92582F8E22236
:0D01E800E58229F582E5833AF583E4932250
:1001F500BC000BBE0029EF8DF084FFADF022E4CCEE
:10020500F875F008EF2FFFEE33FEEC33FCEE9DECB6
:10021500984005FCEE9DFE0FD5F0E9E4CEFD22EDFC
:10022500F8F5F0EE8420D21CFEADF075F008EF2F46
:10023500FFED33FD4007985006D5F0F222C398FD37
:050245000FD5F0EA22D4
:0E024A00C3E49FFFE49EFEE49DFDE49CFC22C5
:00000001FF
