:0A00D700C0792430191202780010DD
:100066007508FF7509FF1200038F08E508F46003A1
:10007600850809E50975F00A849000D793F5A0C2B2
:10008600B07F017E001200ABD2B0E50975F00A849C
:10009600E5F09000D793F5A0C2B17F017E00120073
:0500A600ABD2B180C1E6
:1000AB00E4FDFCC3ED9FEC9E5015E4FBFA0BBB008B
:0F00BB00010AEB647B4A70F50DBD00010C80E477
:0100CA002213
:100003007FFFC297209302E4FF2092027F01209199
:10001300027F022090027F03D297C2962093027F31
:10002300072092027F062091027F052090027F0421
:10003300D296C2952093027F082092027F092091D5
:10004300027F0A2090027F0BD295C2942093027FF5
:100053000F2092027F0E2091027F0D2090027F0CD1
:02006300D29435
:010065002278
:030000000200CB30
:0C00CB00787FE4F6D8FD7581090200661C
:00000001FF
