:0300000002009E5D
:0C009E00787FE4F6D8FD75810F02007633
:10008D003F065B4F666D7D077F6F777C395E7971BB
:01009D000062
:10007600E4FFEF90008D93FE74082FF8A6060FBFDD
:0700860008F012000380FBEB
:10000300E4FFEFB40800504D900012F82828730263
:10001300002A02002E02003602003A0200420200C9
:100023004602004E020052C2A28002D2A2C2A3C262
:10003300A48022C2A28002D2A2D2A3C2A48016C2EA
:10004300A28002D2A2C2A3D2A4800AC2A28002D2F8
:10005300A2D2A3D2A474082FF8E6F5807D0A7C000F
:10006300ED1DAA0470011C4A70F6F5800FEF6408B9
:0200730070908B
:010075002268
:00000001FF
