:0601250048454C4C4F0060
:1000D900C2A08FB0C2A1D2A1EFD3940250047F0273
:0A00E90080027F017E0012007F22DA
:0F010A00D2A08FB0C2A1D2A17F017E0002007FE0
:0200F3008B0878
:1000F500BF01047F8080027FC0EF2D14FF1200D95D
:05010500AF0802010A31
:06005C008B0B8A0C890DDC
:10006200E4F50EAB0BAA0CA90D850E827583001266
:0C0072000003FF600712010A050E80E782
:01007E00225F
:06009F008B088A09890AA2
:1000A500BF01047F8080027FC0EF2D14FF1200D9AD
:0900B500AB08AA09A90A02005CCB
:100030007F301200D97F057E0012007F7F301200D2
:10004000D97F017E0012007F7F301200D97F3812E5
:0C00500000D97F011200D97F0C0200D9FA
:1000BE001200307B4B7D107F011200F37BFF7A0123
:0B00CE0079257D027F0212009F80FE5A
:10007F00E4FDFCC3ED9FEC9E5015E4FBFA0BBB00B7
:0F008F00010AEB647B4A70F50DBD00010C80E4A3
:01009E00223F
:03000000020119E1
:0C011900787FE4F6D8FD75810E0200BE70
:10000300BB010CE58229F582E5833AF583E02250B2
:1000130006E92582F8E622BBFE06E92582F8E222FC
:0D002300E58229F582E5833AF583E4932216
:00000001FF
