:100003008E088F098D0AC2A37F0612006BD2A3C28A
:10001300A37F0212006BE508FF12006BAF09E5092D
:0B00230012006BAF0A12006BD2A32288
:10004E001200A57D09E4FFFE1200037FF47E01126B
:0D005E00002E7D557F017E0012000380FE04
:10002E00E4FDFCC3ED9FEC9E5015E4FBFA0BBB0008
:0F003E00010AEB647B4A70F50DBD00010C80E4F4
:01004D002290
:0700A500D2A3C2A0D2A222E7
:10006B00E4FEEF30E704D2A18002C2A1D2A0C2A06D
:08007B00EF25E0FF0EBE08EACC
:01008300225A
:10008400E4FEEF25E0FFD2A030A203430701C2A0A3
:040094000EBE08EEA6
:010098002245
:0300000002009962
:0C009900787FE4F6D8FD75810A02004E65
:00000001FF
